{
  "address": "0xe7f1725E7734CE288F8367e1Bb143E90bb3F0512",
  "abi": [
    {
      "inputs": [
        {
          "internalType": "address",
          "name": "s_priceFeedAddress",
          "type": "address"
        }
      ],
      "stateMutability": "nonpayable",
      "type": "constructor"
    },
    {
      "inputs": [],
      "name": "FundMe__NotOwner",
      "type": "error"
    },
    {
      "stateMutability": "payable",
      "type": "fallback"
    },
    {
      "inputs": [],
      "name": "MINIMUM_USD",
      "outputs": [
        {
          "internalType": "uint256",
          "name": "",
          "type": "uint256"
        }
      ],
      "stateMutability": "view",
      "type": "function"
    },
    {
      "inputs": [],
      "name": "cheaperWithdraw",
      "outputs": [],
      "stateMutability": "payable",
      "type": "function"
    },
    {
      "inputs": [],
      "name": "fund",
      "outputs": [],
      "stateMutability": "payable",
      "type": "function"
    },
    {
      "inputs": [
        {
          "internalType": "address",
          "name": "add",
          "type": "address"
        }
      ],
      "name": "getAddressToAmount",
      "outputs": [
        {
          "internalType": "uint256",
          "name": "",
          "type": "uint256"
        }
      ],
      "stateMutability": "view",
      "type": "function"
    },
    {
      "inputs": [
        {
          "internalType": "uint256",
          "name": "index",
          "type": "uint256"
        }
      ],
      "name": "getFunders",
      "outputs": [
        {
          "internalType": "address",
          "name": "",
          "type": "address"
        }
      ],
      "stateMutability": "view",
      "type": "function"
    },
    {
      "inputs": [],
      "name": "getPriceFeed",
      "outputs": [
        {
          "internalType": "contract AggregatorV3Interface",
          "name": "",
          "type": "address"
        }
      ],
      "stateMutability": "view",
      "type": "function"
    },
    {
      "inputs": [],
      "name": "i_owner",
      "outputs": [
        {
          "internalType": "address",
          "name": "",
          "type": "address"
        }
      ],
      "stateMutability": "view",
      "type": "function"
    },
    {
      "inputs": [],
      "name": "withdraw",
      "outputs": [],
      "stateMutability": "payable",
      "type": "function"
    },
    {
      "stateMutability": "payable",
      "type": "receive"
    }
  ],
  "transactionHash": "0x9b87952fbec9af1f33cbf5083b427ad83a8a0f375d79271dd2df2a7c0f3c7950",
  "args": [
    "0x5FbDB2315678afecb367f032d93F642f64180aa3"
  ],
  "numDeployments": 1,
  "solcInputHash": "cb9d1b32057b6327b33b397d458cdd55",
  "bytecode": "0x60a06040523480156200001157600080fd5b50604051620012253803806200122583398181016040528101906200003791906200011c565b3373ffffffffffffffffffffffffffffffffffffffff1660808173ffffffffffffffffffffffffffffffffffffffff1681525050806000806101000a81548173ffffffffffffffffffffffffffffffffffffffff021916908373ffffffffffffffffffffffffffffffffffffffff160217905550506200014e565b600080fd5b600073ffffffffffffffffffffffffffffffffffffffff82169050919050565b6000620000e482620000b7565b9050919050565b620000f681620000d7565b81146200010257600080fd5b50565b6000815190506200011681620000eb565b92915050565b600060208284031215620001355762000134620000b2565b5b6000620001458482850162000105565b91505092915050565b6080516110ad620001786000396000818161036b015281816105db01526108c301526110ad6000f3fe60806040526004361061007f5760003560e01c8063b60d42881161004e578063b60d428814610135578063be2693f01461013f578063c0f8cffc14610149578063dba6335f146101865761008e565b80633a7b6c74146100985780633ccfd60b146100d55780636b69a592146100df5780639e87a5cd1461010a5761008e565b3661008e5761008c6101b1565b005b6100966101b1565b005b3480156100a457600080fd5b506100bf60048036038101906100ba9190610a97565b610321565b6040516100cc9190610b05565b60405180910390f35b6100dd610369565b005b3480156100eb57600080fd5b506100f46105a4565b6040516101019190610b2f565b60405180910390f35b34801561011657600080fd5b5061011f6105b0565b60405161012c9190610ba9565b60405180910390f35b61013d6101b1565b005b6101476105d9565b005b34801561015557600080fd5b50610170600480360381019061016b9190610bf0565b610878565b60405161017d9190610b2f565b60405180910390f35b34801561019257600080fd5b5061019b6108c1565b6040516101a89190610b05565b60405180910390f35b673782dace9d9000006101ed60008054906101000a900473ffffffffffffffffffffffffffffffffffffffff16346108e590919063ffffffff16565b101561022e576040517f08c379a000000000000000000000000000000000000000000000000000000000815260040161022590610c7a565b60405180910390fd5b6001339080600181540180825580915050600190039060005260206000200160009091909190916101000a81548173ffffffffffffffffffffffffffffffffffffffff021916908373ffffffffffffffffffffffffffffffffffffffff16021790555034600260003373ffffffffffffffffffffffffffffffffffffffff1673ffffffffffffffffffffffffffffffffffffffff168152602001908152602001600020546102dc9190610cc9565b600260003373ffffffffffffffffffffffffffffffffffffffff1673ffffffffffffffffffffffffffffffffffffffff16815260200190815260200160002081905550565b60006001828154811061033757610336610cfd565b5b9060005260206000200160009054906101000a900473ffffffffffffffffffffffffffffffffffffffff169050919050565b7f000000000000000000000000000000000000000000000000000000000000000073ffffffffffffffffffffffffffffffffffffffff163373ffffffffffffffffffffffffffffffffffffffff16146103ee576040517f579610db00000000000000000000000000000000000000000000000000000000815260040160405180910390fd5b60005b600180549050811015610494576000600260006001848154811061041857610417610cfd565b5b9060005260206000200160009054906101000a900473ffffffffffffffffffffffffffffffffffffffff1673ffffffffffffffffffffffffffffffffffffffff1673ffffffffffffffffffffffffffffffffffffffff16815260200190815260200160002081905550808061048c90610d2c565b9150506103f1565b50600067ffffffffffffffff8111156104b0576104af610d74565b5b6040519080825280602002602001820160405280156104de5781602001602082028036833780820191505090505b50600190805190602001906104f49291906109b5565b5060003373ffffffffffffffffffffffffffffffffffffffff164760405161051b90610dd4565b60006040518083038185875af1925050503d8060008114610558576040519150601f19603f3d011682016040523d82523d6000602084013e61055d565b606091505b50509050806105a1576040517f08c379a000000000000000000000000000000000000000000000000000000000815260040161059890610e35565b60405180910390fd5b50565b673782dace9d90000081565b60008060009054906101000a900473ffffffffffffffffffffffffffffffffffffffff16905090565b7f000000000000000000000000000000000000000000000000000000000000000073ffffffffffffffffffffffffffffffffffffffff163373ffffffffffffffffffffffffffffffffffffffff161461065e576040517f579610db00000000000000000000000000000000000000000000000000000000815260040160405180910390fd5b600060018054806020026020016040519081016040528092919081815260200182805480156106e257602002820191906000526020600020905b8160009054906101000a900473ffffffffffffffffffffffffffffffffffffffff1673ffffffffffffffffffffffffffffffffffffffff1681526020019060010190808311610698575b5050505050905060005b81518110156107675760006002600084848151811061070e5761070d610cfd565b5b602002602001015173ffffffffffffffffffffffffffffffffffffffff1673ffffffffffffffffffffffffffffffffffffffff16815260200190815260200160002081905550808061075f90610d2c565b9150506106ec565b50600067ffffffffffffffff81111561078357610782610d74565b5b6040519080825280602002602001820160405280156107b15781602001602082028036833780820191505090505b50600190805190602001906107c79291906109b5565b5060003373ffffffffffffffffffffffffffffffffffffffff16476040516107ee90610dd4565b60006040518083038185875af1925050503d806000811461082b576040519150601f19603f3d011682016040523d82523d6000602084013e610830565b606091505b5050905080610874576040517f08c379a000000000000000000000000000000000000000000000000000000000815260040161086b90610e35565b60405180910390fd5b5050565b6000600260008373ffffffffffffffffffffffffffffffffffffffff1673ffffffffffffffffffffffffffffffffffffffff168152602001908152602001600020549050919050565b7f000000000000000000000000000000000000000000000000000000000000000081565b6000806108f183610921565b90506000670de0b6b3a7640000858361090a9190610e55565b6109149190610ec6565b9050809250505092915050565b6000808273ffffffffffffffffffffffffffffffffffffffff1663feaf968c6040518163ffffffff1660e01b815260040160a060405180830381865afa15801561096f573d6000803e3d6000fd5b505050506040513d601f19601f820116820180604052508101906109939190610f84565b505050915050670de0b6b3a7640000816109ad9190610fff565b915050919050565b828054828255906000526020600020908101928215610a2e579160200282015b82811115610a2d5782518260006101000a81548173ffffffffffffffffffffffffffffffffffffffff021916908373ffffffffffffffffffffffffffffffffffffffff160217905550916020019190600101906109d5565b5b509050610a3b9190610a3f565b5090565b5b80821115610a58576000816000905550600101610a40565b5090565b600080fd5b6000819050919050565b610a7481610a61565b8114610a7f57600080fd5b50565b600081359050610a9181610a6b565b92915050565b600060208284031215610aad57610aac610a5c565b5b6000610abb84828501610a82565b91505092915050565b600073ffffffffffffffffffffffffffffffffffffffff82169050919050565b6000610aef82610ac4565b9050919050565b610aff81610ae4565b82525050565b6000602082019050610b1a6000830184610af6565b92915050565b610b2981610a61565b82525050565b6000602082019050610b446000830184610b20565b92915050565b6000819050919050565b6000610b6f610b6a610b6584610ac4565b610b4a565b610ac4565b9050919050565b6000610b8182610b54565b9050919050565b6000610b9382610b76565b9050919050565b610ba381610b88565b82525050565b6000602082019050610bbe6000830184610b9a565b92915050565b610bcd81610ae4565b8114610bd857600080fd5b50565b600081359050610bea81610bc4565b92915050565b600060208284031215610c0657610c05610a5c565b5b6000610c1484828501610bdb565b91505092915050565b600082825260208201905092915050565b7f6469646e27742073656e6420656e6f756768204554482e000000000000000000600082015250565b6000610c64601783610c1d565b9150610c6f82610c2e565b602082019050919050565b60006020820190508181036000830152610c9381610c57565b9050919050565b7f4e487b7100000000000000000000000000000000000000000000000000000000600052601160045260246000fd5b6000610cd482610a61565b9150610cdf83610a61565b9250828201905080821115610cf757610cf6610c9a565b5b92915050565b7f4e487b7100000000000000000000000000000000000000000000000000000000600052603260045260246000fd5b6000610d3782610a61565b91507fffffffffffffffffffffffffffffffffffffffffffffffffffffffffffffffff8203610d6957610d68610c9a565b5b600182019050919050565b7f4e487b7100000000000000000000000000000000000000000000000000000000600052604160045260246000fd5b600081905092915050565b50565b6000610dbe600083610da3565b9150610dc982610dae565b600082019050919050565b6000610ddf82610db1565b9150819050919050565b7f43616c6c204661696c6564000000000000000000000000000000000000000000600082015250565b6000610e1f600b83610c1d565b9150610e2a82610de9565b602082019050919050565b60006020820190508181036000830152610e4e81610e12565b9050919050565b6000610e6082610a61565b9150610e6b83610a61565b9250828202610e7981610a61565b91508282048414831517610e9057610e8f610c9a565b5b5092915050565b7f4e487b7100000000000000000000000000000000000000000000000000000000600052601260045260246000fd5b6000610ed182610a61565b9150610edc83610a61565b925082610eec57610eeb610e97565b5b828204905092915050565b600069ffffffffffffffffffff82169050919050565b610f1681610ef7565b8114610f2157600080fd5b50565b600081519050610f3381610f0d565b92915050565b6000819050919050565b610f4c81610f39565b8114610f5757600080fd5b50565b600081519050610f6981610f43565b92915050565b600081519050610f7e81610a6b565b92915050565b600080600080600060a08688031215610fa057610f9f610a5c565b5b6000610fae88828901610f24565b9550506020610fbf88828901610f5a565b9450506040610fd088828901610f6f565b9350506060610fe188828901610f6f565b9250506080610ff288828901610f24565b9150509295509295909350565b600061100a82610f39565b915061101583610f39565b925082820261102381610f39565b91507f8000000000000000000000000000000000000000000000000000000000000000841460008412161561105b5761105a610c9a565b5b82820584148315176110705761106f610c9a565b5b509291505056fea26469706673582212208502219c8e51cd18691aad294aa777ccf090fbea5135dd3eb0c9241af093030064736f6c63430008130033",
  "devdoc": {
    "author": "Burhan Raja",
    "kind": "dev",
    "methods": {},
    "title": "A Smart Contract for Crowd Funding",
    "version": 1
  },
  "userdoc": {
    "kind": "user",
    "methods": {},
    "version": 1
  },
  "storageLayout": {
    "storage": [
      {
        "astId": 64,
        "contract": "contracts/FundMe.sol:FundMe",
        "label": "s_priceFeed",
        "offset": 0,
        "slot": "0",
        "type": "t_contract(AggregatorV3Interface)45"
      },
      {
        "astId": 69,
        "contract": "contracts/FundMe.sol:FundMe",
        "label": "s_funders",
        "offset": 0,
        "slot": "1",
        "type": "t_array(t_address)dyn_storage"
      },
      {
        "astId": 73,
        "contract": "contracts/FundMe.sol:FundMe",
        "label": "s_addressToAmountFunded",
        "offset": 0,
        "slot": "2",
        "type": "t_mapping(t_address,t_uint256)"
      }
    ],
    "types": {
      "t_address": {
        "encoding": "inplace",
        "label": "address",
        "numberOfBytes": "20"
      },
      "t_array(t_address)dyn_storage": {
        "base": "t_address",
        "encoding": "dynamic_array",
        "label": "address[]",
        "numberOfBytes": "32"
      },
      "t_contract(AggregatorV3Interface)45": {
        "encoding": "inplace",
        "label": "contract AggregatorV3Interface",
        "numberOfBytes": "20"
      },
      "t_mapping(t_address,t_uint256)": {
        "encoding": "mapping",
        "key": "t_address",
        "label": "mapping(address => uint256)",
        "numberOfBytes": "32",
        "value": "t_uint256"
      },
      "t_uint256": {
        "encoding": "inplace",
        "label": "uint256",
        "numberOfBytes": "32"
      }
    }
  }
}